S00F00004D4F44554C45342E737265631B
S11300000C942A000C9434000C9434000C943400A6
S11300100C9434000C9434000C9434000C9434008C
S11300200C9434000C9434000C9434000C9434007C
S11300300C9434000C9434000C9434000C9434006C
S11300400C9434000C9434000C9434000C9434005C
S11300500C94340011241FBECFE5D4E0DEBFCDBF25
S11300600E9436000C9467000C9400001ABA86E0D3
S113007087BB8FEF81BB12BA18BAB09B07C082B39B
S1130080816082BB82B38D7F82BB06C082B38E7FC8
S113009082BB82B3826082BBC89B05C012BA88B39C
S11300A0826088BB03C088B38D7F88BBC99B05C0B1
S11300B012BA88B3846088BB03C088B38B7F88BBC3
S11300C08FE19EE40197F1F700C00000D6CFF894C9
S10500D0FFCF5C
S9030000FC
