S00F00004D4F44554C45332E737265631C
S11300000C942A000C9434000C9434000C943400A6
S11300100C9434000C9434000C9434000C9434008C
S11300200C9434000C9434000C9434000C9434007C
S11300300C9434000C9434000C9434000C9434006C
S11300400C9434000C9434000C9434000C9434005C
S11300500C94340011241FBECFE5D4E0DEBFCDBF25
S11300600E9436000C945F000C94000082E08ABB6E
S113007017BA81E084BBC89B12C086B38F708A30E4
S113008039F48BB382608BBB85B3816085BB0DC0B3
S11300908BB38D7F8BBB85B38E7F85BB06C08BB343
S11300A08D7F8BBB85B38E7F85BB2FE788E391E083
S11300B0215080409040E1F700C00000DCCFF8946C
S10500C0FFCF6C
S9030000FC
