S00F00004D4F44554C45322E737265631D
S11300000C942A000C943C000C943C000C943C008E
S11300100C943C000C94A9000C943C000C943C00FF
S11300200C943C000C943C000C943C000C943C005C
S11300300C943C000C943C000C943C000C943C004C
S11300400C943C000C943C000C943C000C943C003C
S11300500C943C0011241FBECFE5D4E0DEBFCDBF1D
S113006020E0A0E6B0E001C01D92A536B207E1F79A
S11300700E943E000C94F2000C94000082E08ABBC3
S113008081E081BB1FBC82E48EBD80E289BF78948D
S1130090C89B52C082B3816082BB2AE12A95F1F7E2
S11300A000C082B38E7F82BB80916000882309F4F4
S11300B046C020916100309162008091630090916C
S11300C064008217930768F4609161007091620084
S11300D08091630090916400681B790B80E090E04C
S11300E016C020916300309164008FEF9FEFA0E071
S11300F0B0E0821B930BA109B109209161003091FA
S11301006200BC01CD01620F731F811D911D2AE3A2
S113011030E040E050E00E94D0002150310923310A
S1130120310520F48BB382608BBB03C08BB38D7F0E
S11301308BBB1092600003C08BB38D7F8BBB8FEFA2
S113014090E722E0815090402040E1F700C0000099
S11301509FCF1F920F920FB60F9211248F939F93EC
S11301600EB406FE0AC086B597B5909364008093DA
S113017063008EB58F7B8EBD0CC086B597B590930A
S11301806200809361008EB580648EBD81E08093AF
S113019060009F918F910F900FBE0F901F90189544
S11301A0A1E21A2EAA1BBB1BFD010DC0AA1FBB1F77
S11301B0EE1FFF1FA217B307E407F50720F0A21BE9
S11301C0B30BE40BF50B661F771F881F991F1A9456
S11301D069F760957095809590959B01AC01BD0180
S10B01E0CF010895F894FFCF4C
S9030000FC
