S00F00004D4F44554C45312E737265631E
S11300000C942A000C9434000C9434000C943400A6
S11300100C9434000C9434000C9434000C9434008C
S11300200C9434000C9434000C9434000C9434007C
S11300300C9434000C9434000C9434000C9434006C
S11300400C9434000C9434000C9434000C9434005C
S11300500C94340011241FBECFE5D4E0DEBFCDBF25
S11300600E945B000C9481000C94000082B38460B5
S113007082BB82B3877F82BB82B3816082BB82B33F
S11300808D7F82BB089582B3837F82BB82B38160FC
S113009082BB82B38D7F82BB089582B3846082BBAE
S11300A082B3877F82BB82B38C7F82BB089582B385
S11300B0807F82BB08951ABA17BA8FEF81BBC89BA1
S11300C017C086B3817026B396B3947021FF03C022
S11300D00E9436000FC0882319F00E9443000AC012
S11300E0992319F00E944D0005C00E94570002C0D8
S11300F00E9457008FE19EE40197F1F700C00000D1
S1090100DECFF894FFCFEE
S9030000FC
