:100000000C9435000C944A000C944A000C944A005D
:100010000C944A000C944A000C944A000C944A0038
:100020000C944A000C944A000C944A000C944A0028
:100030000C944A000C944A000C944A000C944A0018
:100040000C944A000C944A000C944A000C944A0008
:100050000C944A00200145015A0177019901B7012A
:10006000D901F1010E022602480211241FBECFE57C
:10007000D4E0DEBFCDBF11E0A0E6B0E0E4EEF4E0F6
:1000800002C005900D92A23AB107D9F70E94030170
:100090000C9470020C94000095B39F70282F207F61
:1000A000922B95BB92B39E7F92BB92B3946092BB0E
:1000B00032E03A95F1F700C092B39B7F92BBEFE834
:1000C000F1E03197F1F700C0000025B3F0E18F9F18
:1000D000C0011124922F9F70892B85BB82B384604D
:1000E00082BB32E03A95F1F700C082B38B7F82BBCE
:1000F0008FE99FE00197F1F700C00000089595B3E4
:100100009F70282F207F922B95BB92B3916092BB5A
:1001100092B3946092BB32E03A95F1F700C092B38B
:100120009B7F92BBEFE8F1E03197F1F700C0000050
:1001300025B3F0E18F9FC0011124922F9F70892B6E
:1001400085BB82B3846082BB32E03A95F1F700C090
:1001500082B38B7F82BB8FE99FE00197F1F700C0EC
:10016000000008958FEF84BB81B3876081BB82B3A9
:100170008D7F82BB8FE39CE90197F1F700C00000FF
:1001800083E30E944C0082E30E944C0088E20E94BC
:100190004C008CE00E944C0086E00E944C0081E004
:1001A0000E944C008FE99FE00197F1F700C000002A
:1001B00008950F931F93CF93DF938C01C0E0D0E09D
:1001C00003C00E947F002196F801EC0FFD1F808183
:1001D0008111F7CFDF91CF911F910F91089581E0A9
:1001E0000E944C008FE99FE00197F1F700C00000EA
:1001F0000895811103C080E8860F02C080EC860F4D
:100200000E944C0008951ABA8FEF87BB8FE081BB24
:100210000E94B200C0E0C99B08C0C13019F0C630CE
:1002200021F402C0CAE001C0CAE08C2F90E08B30FC
:10023000910508F048C1FC01E65DFF4F0C946A028D
:1002400060E080E00E94F90080E690E00E94D90022
:1002500060E081E00E94F90082E790E00E94D9000E
:1002600018BA82B3877F82BBC89B2DC12FE788E372
:1002700091E0215080409040E1F700C00000C89B11
:1002800022C10E94EF00C1E01EC160E080E00E9438
:10029000F90081E890E00E94D90060E081E00E94CE
:1002A000F90083E990E00E94D90087E288BBCA99EF
:1002B00005C109C160E080E00E94F90085EA90E094
:1002C0000E94D90060E081E00E94F90087EB90E095
:1002D0000E94D90080E288BB2FEF89E698E1215087
:1002E00080409040E1F700C00000C3E0ECC060E057
:1002F00080E00E94F90089EC90E00E94D90060E063
:1003000081E00E94F9008BED90E00E94D90082B359
:10031000886082BB80E388BBCB9BD5C02FEF84E392
:100320009CE0215080409040E1F700C00000C4E014
:10033000CAC082B3877F82BB60E080E00E94F90080
:1003400089EC90E00E94D90060E081E00E94F90011
:100350008DEE90E00E94D9002FEF89E698E12150C0
:1003600080409040E1F700C00000C5E0ACC060E014
:1003700080E00E94F90089EC90E00E94D90060E0E2
:1003800081E00E94F90080E091E00E94D90082B3F0
:10039000886082BB88E388BBCC9B95C02FEF84E349
:1003A0009CE0215080409040E1F700C00000C6E092
:1003B0008AC082B3877F82BB60E080E00E94F90040
:1003C00082E191E00E94D90060E081E00E94F900A2
:1003D00084E291E00E94D90087E288BBCD9970C089
:1003E00072C060E080E00E94F90085EA90E00E941F
:1003F000D90060E081E00E94F90086E391E00E946C
:10040000D90080E288BB2FEF89E698E12150804037
:100410009040E1F700C00000C8E055C060E080E017
:100420000E94F90089EC90E00E94D90060E081E030
:100430000E94F90088E491E00E94D90082B38860AC
:1004400082BB80E388BBCB993DC03DC082B3877F30
:1004500082BB60E080E00E94F9008AE591E00E94A2
:10046000D90060E081E00E94F9008CE691E00E94F2
:10047000D90080E488BB2FEF8DE399E421508040C0
:100480009040E1F700C000000E94EF00C0E01BC0F8
:1004900082B3877F82BB60E080E00E94F9008EE734
:1004A00091E00E94D90060E081E00E94F90080E9BB
:1004B00091E00E94D90080E888BB05C0C2E003C07B
:1004C000C7E001C0C9E08FE19EE40197F1F700C0E9
:1004D0000000A1CEEE0FFF1F0590F491E02D0994CE
:0404E000F894FFCFBE
:1004E40053746174653A2049444C452020202020EF
:1004F400200050726573732053544152542E2E2E93
:100504000053746174653A204E6176696761746959
:100514006E67005461726765743A205368656C664F
:10052400204120200053746174653A20417272693D
:10053400766564202020004174205368656C662031
:1005440041202020202020200053746174653A202B
:1005540047726970706572202020004F70656E6963
:100564006E672E2E2E20202020202020005069632C
:100574006B696E67207570206974656D2E2E2E0070
:10058400436C6F73696E672E2E2E2020202020204E
:10059400200053746174653A2052657475726E69F3
:1005A4006E672000546F20486F6D65202020202046
:1005B400202020202000417420486F6D65202020D9
:1005C400202020202020200052656C656173696E14
:1005D40067206974656D2E2E2E0053746174653A1C
:1005E40020436F6D706C65746521200020202020ED
:1005F4002020202020202020202020202000212115
:100604002120454D455247454E4359202121210083
:100614004F62737461636C652044657465637465CB
:02062400640070
:00000001FF
